:020000040800F2
:10000000000002205D260008E5250008E72500081D
:10001000E9250008EB250008ED2500080000000098
:10002000000000000000000000000000EF250008B4
:10003000F125000800000000F3250008F525000860
:10004000AD260008AD260008AD260008AD26000844
:10005000AD260008AD260008AD260008AD26000834
:10006000AD260008AD260008AD260008AD26000824
:10007000AD260008AD260008AD260008AD26000814
:10008000AD260008AD260008AD260008AD26000804
:10009000AD260008AD260008AD260008AD260008F4
:1000A000AD260008AD260008AD260008AD260008E4
:1000B000AD260008AD260008AD260008AD260008D4
:1000C000AD260008AD260008AD260008AD260008C4
:1000D000AD260008AD260008AD260008AD260008B4
:1000E000AD26000801260008AD260008AD26000850
:1000F000AD260008AD260008AD260008AD26000894
:10010000AD260008AD260008AD260008AD26000883
:10011000AD260008AD260008AD260008AD26000873
:10012000AD260008AD260008AD260008AD26000863
:10013000AD2600080000000000000000AD26000809
:10014000AD260008AD260008AD260008AD26000843
:10015000AD260008AD260008AD260008AD26000833
:10016000AD260008AD260008AD260008AD26000823
:10017000AD260008AD260008AD26000800000000EE
:1001800000000000AD260008000000000000000094
:10019000AD2600080000000000000000AD260008A9
:1001A000000000000000000000000000AD26000874
:1001B000AD260008AD260008AD260008AD260008D3
:0401C000AD26000860
:1001D00010B5054C237833B9044B13B10448AFF381
:1001E00000800123237010BD70000020000000007B
:1001F0001C2F000808B5034B1BB103490348AFF39C
:10020000008008BD00000000740000201C2F0008C2
:1002100053B94AB9002908BF00281CBF4FF0FF316D
:100220004FF0FF3000F072B9ADF1080C6DE904CE6B
:1002300000F006F8DDF804E0DDE9022304B07047C1
:100240002DE9F047089E04468846002B4BD18A4290
:10025000154667D9B2FA82F24AB1C2F1200701FA13
:1002600002F320FA07F7954047EA030894404FEA63
:10027000154E230CB8FBFEF71FFA85FC0EFB178802
:1002800043EA084307FB0CF1994209D9EB1807F13F
:10029000FF3080F01B81994240F21881023F2B44CD
:1002A0005B1AA4B2B3FBFEF00EFB103344EA034426
:1002B00000FB0CFCA44509D92C1900F1FF3380F098
:1002C0000781A44540F2048102382C4440EA0740EB
:1002D000A4EB0C0400271EB1D4400023C6E9004360
:1002E0003946BDE8F0878B4209D9002E00F0EB803B
:1002F0000027C6E9000138463946BDE8F087B3FA61
:1003000083F7002F47D18B4202D3824200F2FA805A
:10031000841A61EB030301209846002EE0D0C6E961
:100320000048DDE702B9FFDEB2FA82F2002A40F0AF
:100330008F80491B4FEA154E1FFA85F80127B1FB44
:10034000FEFC230C0EFB1C1143EA014308FB0CF1DD
:10035000994207D9EB180CF1FF3002D2994200F212
:10036000CD808446591AA3B2B1FBFEF00EFB1014E7
:1003700043EA044408FB00F8A04507D92C1900F112
:10038000FF3302D2A04500F2B6801846A4EB080461
:1003900040EA0C409FE7C7F1200CBB4022FA0CFE5C
:1003A0004EEA030E01FA07F420FA0CF521FA0CF3D9
:1003B0004FEA1E482543B3FBF8F92C0C08FB193310
:1003C0001FFA8EFA44EA034309FB0AF49C4202FA3C
:1003D00007F200FA07F10BD91EEB030309F1FF3016
:1003E00080F087809C4240F28480A9F10209734426
:1003F0001B1BADB2B3FBF8F008FB103345EA034416
:1004000000FB0AFAA24508D91EEB040400F1FF33F1
:100410006BD2A24569D90238744440EA0940A0FB76
:100420000289A4EB0A044C45C2464B4654D351D032
:10043000002E69D0B1EB0A0564EB030404FA0CFC4E
:10044000FD40FC404CEA0505C6E90054002747E79B
:10045000C2F1200320FA03F7954001FA02F021FAD5
:1004600003F34FEA154E3843010CB3FBFEF71FFAB6
:1004700085F80EFB173341EA034107FB08F38B4273
:1004800004FA02F407D9691807F1FF3C2FD28B4216
:100490002DD9023F2944CB1A81B2B3FBFEF00EFBEB
:1004A000103341EA034100FB08F38B4207D9691876
:1004B00000F1FF3C17D28B4215D902382944C91AE2
:1004C00040EA07473BE73746304609E70746E7E695
:1004D0001846FBE64145ABD2B8EB020A69EB0E02C7
:1004E00001381346A4E76046E9E7184695E76746F2
:1004F000D1E781467CE702382C4447E7ACF1020C97
:100500002B442FE7384608E73746E9E6704700BF37
:1005100001F0FF01102A2BDB10F0070F08D010F8B4
:10052000013B013A8B422DD010F0070F42B3F6D1B8
:10053000F0B441EA012141EA014122F007047FF0D1
:1005400000070023F0E80256083C85EA010586EA28
:10055000010685FA47F5A3FA87F586FA47F6A5FA64
:1005600087F68EB9EED1F0BC01F0FF0102F0070270
:1005700032B110F8013B013A83EA010313B1F8D11B
:100580000020704701387047002D06BF35460338FC
:10059000073815F0010F07D1013015F4807F02BF35
:1005A000013015F4C03F0130F0BC0138704700BF86
:1005B00010B504460E4B18784FF47A73B3FBF0F382
:1005C0000C4A1068B0FBF3F000F0A8F868B90F2CE3
:1005D00001D901200AE0002221464FF0FF3000F04F
:1005E0005DF8034B5C60002000E0012010BD00BFFF
:1005F000000000200800002008B50B4B1A6842F4E8
:1006000000721A601A6842F480621A601A6842F432
:1006100080721A60032000F02FF80020FFF7C8FF57
:1006200001F054FF002008BD003C0240034A11685D
:10063000034B1B780B441360704700BF9C000020E5
:1006400000000020014B1868704700BF9C0000208C
:1006500038B50446FFF7F6FF0546B4F1FF3F02D078
:10066000044B1B781C44FFF7EDFF401BA042FAD35C
:1006700038BD00BF00000020074AD36823F4E063C0
:100680001B041B0C000200F4E060184340F0BF6044
:1006900040F40030D060704700ED00E030B4174BFC
:1006A000DB68C3F30223C3F10704042C28BF04242E
:1006B0001D1D062D18D9033B4FF0FF3505FA04F434
:1006C00021EA0401994005FA03F322EA03031943DE
:1006D00000280BDB0901C9B200F1604000F5614060
:1006E00080F8001330BC70470023E5E700F00F00EE
:1006F0000901C9B2024B1954F4E700BF00ED00E054
:1007000014ED00E000F01F02400901239340024A6B
:1007100042F82030704700BF00E100E00138B0F13E
:10072000807F0AD2064B5860064AF02182F82310D7
:100730000020986007221A6070470120704700BFB0
:1007400010E000E000ED00E0042805D0054A136841
:1007500023F0040313607047024A136843F0040354
:100760001360704710E000E0704708B5FFF7FCFF2A
:1007700008BD000000230F2B00F2D180F0B482B03E
:1007800039E0062200E00022B2403A430234644ECF
:1007900046F82420634A1468EA4302EA04064F68D4
:1007A00017F4803F01D045EA04065E4C2660646879
:1007B00002EA04064F6817F4003F01D045EA040638
:1007C000584C6660A46802EA04064F6817F4801F5C
:1007D00001D045EA0406534CA660E46822404E6806
:1007E00016F4001F01D045EA04024E4CE2600133CA
:1007F0000F2B00F2918001229A400C6804EA020556
:10080000AA42F4D14C68022C01D0122C10D1DE087F
:10081000083650F826C003F00704A7000F24BC4098
:100820002CEA040C0C69BC4044EA0C0440F8264055
:1008300004685F000326BE40F64306EA040C4C68D9
:1008400004F00304BC4044EA0C0404604C6804F166
:10085000FF3CBCF1010F03D9112C01D0122C10D197
:10086000846806EA040CCC68BC4044EA0C0484604A
:10087000446824EA02024C68C4F300149C40144308
:100880004460C26816408A68BA403243C2604A680F
:1008900012F0805FABD000220192234A546C44F4E2
:1008A00080445464526C02F480420192019A9C0884
:1008B000A61C1B4A52F8267003F0030296000F2272
:1008C000B24027EA0207194A90423FF45CAF02F5B2
:1008D0008062904216D002F58062904214D002F5F8
:1008E0008062904212D002F58062904210D002F5F0
:1008F000806290420ED002F5806290423FF441AF98
:10090000072241E701223FE702223DE703223BE7BE
:10091000042239E7052237E702B0F0BC7047704780
:1009200000380140003C0140003802400000024015
:1009300012B90904816170478161704703685A697F
:1009400012F4806F0DD06FF480625A610423036447
:1009500000230363202280F83D2080F83C300120F2
:10096000704700207047F8B506460C4617461D46EE
:100970001EE02DB1FFF766FE069BC01AA84217D9EC
:1009800000233363202286F83D2086F83E3086F827
:100990003C3003201AE033685B6924EA03039BB20E
:1009A000B3FA83F35B099F420FD1B5F1FF3FE0D16A
:1009B000C4F30743012BEED033689B6924EA030399
:1009C0009BB2B3FA83F35B09EDE70020F8BDF8B5FD
:1009D00004460D4616461F4632E01A6842F400727D
:1009E0001A6023686FF480625A6104232364002331
:1009F0002363202284F83D2084F83C3001202DE040
:100A000026B1FFF71FFEC01BB04219D90023236394
:100A1000202284F83D2084F83C3003201EE0236827
:100A20005B6925EA03039BB2003318BF0123A3B11E
:100A300023685A6912F4806FCFD1B6F1FF3FDFD13E
:100A4000C5F30743012BEAD023689B6925EA03031A
:100A50009BB2003318BF0123E9E70020F8BD000076
:100A6000F0B583B004460D4616461F46C36A042BF4
:100A70000DD0012B0BD013F5803F08D0036B122B48
:100A80000AD10268136843F48073136004E022689B
:100A9000136843F4807313600097334600224FF0CD
:100AA00001112046FFF75FFF58BB2369B3F5804F64
:100AB00010D1236805F0FE051D613B4632461549FD
:100AC0002046FFF784FF0346E0B1236C042B1ED1C0
:100AD000012317E0EB11226803F0060343F0F00353
:100AE00013613B4632460C492046FFF770FF20B1A8
:100AF000236C042B09D1012304E02368EDB21D61AE
:100B0000DBE70323184603B0F0BD0323FAE7032312
:100B1000F8E700BF020001000800010070B50446BC
:100B20000D46164623685B6913F0800F19D12046E5
:100B3000FFF704FFB8B9B5F1FF3FF3D025B1FFF7D8
:100B400081FD801BA842EDD9236C43F02003236470
:100B500000232363202284F83D2084F83C300320C6
:100B600000E0002070BD0120FCE770B504460D4692
:100B7000164623685B6913F0040F19D12046FFF76E
:100B8000DDFEB8B9B5F1FF3FF3D025B1FFF75AFD4F
:100B9000801BA842EDD9236C43F02003236400237B
:100BA0002363202284F83D2084F83C30032000E0B9
:100BB000002070BD0120FCE7002800F0828010B505
:100BC000044690F83D30002B41D0242384F83D307A
:100BD0002268136823F00103136000F02FFA3A4BE8
:100BE000A3FB00239B0C226853606168374A914243
:100BF00032D80133226813626368344A934235D88D
:100C00005B00B0FBF3F0C0F30B03032B00D8042010
:100C10002368D861E369216A22680B431360236962
:100C2000E16822680B4393606369A16922680B4302
:100C3000D3602268136843F001031360002020642E
:100C4000202384F83D30206384F83E0010BD80F8F6
:100C50003C3001F085FCB8E74FF4967202FB03F3D9
:100C60001B4AA2FB03239B090133C3E7A16889B98F
:100C700003EB4302B0FBF2F2C2F30B02B2FA82F2D0
:100C80005209E2B991B903EB4303B0FBF3F040F42E
:100C90000040BDE703EB830202EB8202B0FBF2F2FD
:100CA000C2F30B02B2FA82F25209EAE703EB8303C2
:100CB00003EB8303B0FBF3F040F44040A8E70120CE
:100CC000A6E70120704700BF83DE1B43A08601001A
:100CD000D34D62102DE9F04184B004460E46904693
:100CE0001F46FFF7AFFC94F83D30DBB2202B04D059
:100CF0000226304604B0BDE8F08105460090192375
:100D0000012254492046FFF72EFE002840F099802A
:100D100094F83C30012B00F09680012384F83C309D
:100D200023681A6812F0010F03D11A6842F0010219
:100D30001A602268136823F400631360212384F887
:100D40003D30102384F83E3000232364C4F824800F
:100D50006785A3F58033E362638D23852B460A9A6A
:100D600031462046FFF77CFE064660B1236C042B1B
:100D700004D1002384F83C300126BAE7002384F82C
:100D80003C300326B5E70023039323685A69039296
:100D90009B690393039B10E0236C042B55D12268BD
:100DA000136843F4007313600126A2E72A460A99E8
:100DB0002046FFF7DAFE00282BD1238D002B32D0FE
:100DC0002A460A992046FFF7A9FE0028E4D1636A63
:100DD0005A1C626222681B781361638D013B9BB2CF
:100DE0006385238D013B9BB223852268516911F0F5
:100DF000040FDBD0002BD9D0636A591C61621B78C9
:100E00001361638D013B9BB26385238D013B238579
:100E1000CCE7236C042B1AD12268136843F40073C7
:100E20001360012665E72268136843F400731360BA
:100E3000202384F83D30002384F83E3084F83C3091
:100E400057E7022655E7022653E7032651E7032614
:100E50004FE700BF0200100010B582B000230193DD
:100E6000194B1A6C42F080521A641B6C03F08053C9
:100E70000193019B154B01221A60FFF7E3FB044627
:100E8000134B5B6813F4803F08D1FFF7DBFB001BBB
:100E9000B0F57A7FF4D9032002B010BD0D4B0122CA
:100EA0001A60FFF7CFFB0446094B5B6813F4003F61
:100EB00007D1FFF7C7FB001BB0F57A7FF4D90320F9
:100EC000EAE70020E8E700BF0038024040000E4299
:100ED0000070004044000E42002800F09D8070B574
:100EE00004464F4B1B6803F00F038B4209D2CBB271
:100EF0004B4A1370136803F00F038B4201D001209B
:100F000070BD236813F0020F17D013F0040F04D044
:100F1000444A936843F4E0539360236813F0080F46
:100F200004D0404A936843F4604393603D4A936819
:100F300023F0F003A068034393600D46236813F089
:100F4000010F32D06368012B21D09A1E012A25D9C6
:100F5000344A126812F0020F60D032498A6822F0D7
:100F6000030213438B60FFF76DFB06462D4B9B6816
:100F700003F00C036268B3EB820F16D0FFF762FB3D
:100F8000801B41F288339842F0D90320B8E7254A04
:100F9000126812F4003FE0D10120B1E7214A126843
:100FA00012F0007FD9D10120AAE71D4B1B6803F086
:100FB0000F03AB4209D9EAB2194B1A701B6803F050
:100FC0000F03AB4201D001209AE7236813F0040F0E
:100FD00006D0144A936823F4E053E1680B4393600E
:100FE000236813F0080F07D00E4A936823F4604378
:100FF000216943EAC103936000F06EFA094B9B68D4
:10100000C3F30313084AD35CD840084B1860002090
:10101000FFF7CEFA002073E70120704701206FE749
:10102000003C024000380240342F00080800002035
:10103000014B1868704700BF0800002008B5FFF793
:10104000F7FF044B9B68C3F38223034AD35CD84069
:1010500008BD00BF00380240442F0008F0B583B03F
:101060000446036813F0010F0CD0964AD2F88C3076
:1010700023F0C063816B0B43C2F88C30836B3BB3AE
:10108000002600E00026236813F0020F0BD08D4AE3
:10109000D2F88C3023F0C053E16B0B43C2F88C3094
:1010A000E36B03B90126236813F0040F14D0854ABB
:1010B000D2F88C3023F44013216B0B43C2F88C30F0
:1010C000236BB3F5801F05D0002B7BD0002504E0F7
:1010D0000126D8E70126F7E70025236813F0080F5B
:1010E0000ED0784AD2F88C3023F44003616B0B4366
:1010F000C2F88C30636BB3F5800F65D003B901255E
:10110000236813F0200F61D1236813F0100F03D070
:1011100094F858206C4B1A60236813F0800F08D0A5
:10112000684AD2F8943023F44003E16C0B43C2F8D0
:101130009430236813F0400F08D0624AD2F89430FC
:1011400023F08063A16C0B43C2F89430236813F43E
:10115000807F0DD05B4AD2F8943023F00063616D3C
:101160000B43C2F89430636DB3F1006F00F09580CB
:10117000236813F4007F08D0524AD2F8943023F049
:101180008053616C0B43C2F89430236813F4806F72
:101190000CD04C4AD2F8943023F00053216D0B430D
:1011A000C2F89430236DB3F1005F78D0002E76D171
:1011B0002368B3F5006F72D0002D40F0228100202B
:1011C00003B0F0BD012588E7012697E700230193CE
:1011D0003C4B1A6C42F080521A641B6C03F0805333
:1011E0000193019B394A136843F480731360FFF73E
:1011F00029FA0746354B1B6813F4807F06D1FFF7A9
:1012000021FAC01B0228F5D90320D9E72D4B1B6F0B
:1012100013F4407312D0226C02F440729A420DD043
:10122000284B1A6F22F440722949012008600020DF
:1012300008601A671B6F13F0010F12D1236C03F4BF
:101240004072B2F5407F1DD01E4A936823F4F81314
:1012500093601C490B6F226CC2F30B0213430B67A4
:1012600052E7FFF7EFF90746164B1B6F13F0020F1B
:10127000E4D1FFF7E7F9C01B41F288339842F3D974
:1012800003209DE70F498A6822F4F81223F0704387
:1012900023F4407313438B60DBE7012568E70D4BB4
:1012A00000221A60FFF7CEF90646064B1B6813F0C2
:1012B000006F11D0FFF7C6F9801B0228F5D9032073
:1012C0007EE700BF00380240E01147420070004056
:1012D000400E474268004742236813F0010F01D0D7
:1012E000A26B22B113F0020F15D0E36B9BB9774AC2
:1012F000D2F88400D2F884106368A66843EA8613A3
:1013000000F44030034301F070610B43616943EA2C
:101310000173C2F88430236813F0040F03D0226BEA
:10132000B2F5801F06D013F0080F20D0636BB3F521
:10133000800F1CD1654AD2F88400D2F8841063680B
:10134000A66843EA861300F440300343206943EA69
:10135000006301F0E0410B43C2F88430D2F88C30D6
:1013600023F01F03A16A01390B43C2F88C302368B4
:1013700013F4806F03D0236DB3F1005F28D023688E
:1013800013F4006F11D06368A26843EA8213E26825
:101390005208013A43EA0243226943EA026362695E
:1013A00043EA0273494AC2F88430494B01221A6069
:1013B000FFF748F90646454B1B6813F0006F7FF4B2
:1013C000FBAEFFF73FF9801B0228F4D90320F7E6B4
:1013D0003E48D0F88430C3F301435A1CD0F88460EF
:1013E0006368A16843EA8113E1684908013943EA67
:1013F000014343EA426306F0E0421343C0F88430FD
:10140000BDE7344B00221A60FFF71CF905462F4B4D
:101410001B6813F0005F06D0FFF714F9401B022889
:10142000F5D90320CCE6236813F0040F01D0226B1A
:1014300022B113F0080F1AD0636BC3B9234AD2F854
:101440008810A369E06943EA801301F440310B433B
:10145000616A43EA0163C2F88830D2F88C3023F421
:10146000F853E16A013943EA0123C2F88C3023685A
:1014700013F4807F03D0636DB3F1006F11D0154B6F
:1014800001221A60FFF7DEF80446104B1B6813F0C8
:10149000005F18D1FFF7D6F8001B0228F5D903200A
:1014A0008EE60A48D0F88810A369E26943EA8213FD
:1014B000226A5208013A43EA024301F07062134380
:1014C000C0F88830DBE700207AE600BF0038024031
:1014D00068004742700047422DE9F04B5C4B9B6827
:1014E00003F00C03082B07D00C2B5BD0042B00F06F
:1014F000AD805848BDE8F08B554B5A6802F03F026A
:101500005B6813F4800F2AD0514B5B68C3F38813D8
:101510001E4600275C010025E41A65EB0705A901BA
:1015200041EA9461A001001B61EB0501CB0043EA95
:101530005073C400A01943EB07014B0243EAD05398
:101540004402204619460023FEF762FE404B5B68CA
:10155000C3F3014301335B00B0FBF3F0CAE73C4B3C
:101560005B68C3F388131E4600275C010025E41A5C
:1015700065EB0705A90141EA9461A001001B61EB3D
:101580000501CB0043EA5073C400A01943EB0701E7
:101590008B0243EA90538402204619460023FEF74B
:1015A00037FED3E72A4B5A6802F03F025B6813F418
:1015B000800F28D0264B5B68C3F388131E46002794
:1015C0005C010025E41A65EB0705A90141EA946175
:1015D000A001001B61EB0501CB0043EA5073C4007E
:1015E000A01943EB07014B0243EAD05344022046C3
:1015F00019460023FEF70CFE154B5B68C3F302731C
:10160000B0FBF3F076E7124B5B68C3F388131E461A
:1016100000275C010025E41A65EB0705A90141EAF2
:101620009461A001001B61EB0501CB0043EA5073FC
:10163000C400A01943EB07018B0243EA90538402D4
:10164000204619460023FEF7E3FDD5E7024851E79F
:10165000003802400024F40000127A0070B582B015
:101660000446036813F0010F41D0A64B9B6803F0BA
:101670000C03042B32D0A34B9B6803F00C03082B04
:1016800027D0A04B9B6803F00C030C2B59D0636848
:10169000B3F5803F5BD0B3F5A02F5ED0994B1A68AD
:1016A00022F480321A601A6822F480221A60636879
:1016B000002B5CD0FEF7C6FF0546924B1B6813F467
:1016C000003F14D1FEF7BEFF401B6428F5D903206C
:1016D0009DE18C4B5B6813F4800FD2D0894B1B6863
:1016E00013F4003F03D06368002B00F08D81236862
:1016F00013F0020F67D0834B9B6813F00C0F4AD096
:10170000804B9B6803F00C03082B3FD07D4B9B68FC
:1017100003F00C030C2B48D0E368002B74D07A4BF9
:1017200001221A60FEF78EFF0546764B1B6813F008
:10173000020F60D1FEF786FF401B0228F5D9032077
:1017400065E1704B5B6813F4800FA0D0C6E76D4A6B
:10175000136843F480331360A9E76A4B1A6842F4B4
:1017600080221A601A6842F480321A609FE7FEF7FE
:1017700069FF0546634B1B6813F4003FB7D0FEF7C3
:1017800061FF401B6428F5D9032040E15D4B5B6895
:1017900013F4800FBAD15B4B1B6813F0020F0AD011
:1017A000E368012B07D0012031E1564B5B6813F44D
:1017B000800FB1D1EFE7534A136823F0F803216992
:1017C00043EAC1031360236813F0080F40D0636934
:1017D00063B34E4B01221A60FEF734FF0546494BB6
:1017E0005B6F13F0020F33D1FEF72CFF401B022872
:1017F000F5D903200BE1434A136823F0F80321696C
:1018000043EAC1031360DEE73F4B00221A60FEF794
:1018100019FF05463B4B1B6813F0020FD3D0FEF7B0
:1018200011FF401B0228F5D90320F0E0374B0022BE
:101830001A60FEF707FF0546324B5B6F13F0020F8D
:1018400006D0FEF7FFFE401B0228F5D90320DEE09C
:10185000236813F0040F79D02A4B1B6C13F0805FC0
:1018600033D100230193274B1A6C42F080521A6443
:101870001B6C03F080530193019B0125244B1B68D3
:1018800013F4807F23D0A368012B34D0052B41D0E3
:101890001C4B1A6F22F001021A671A6F22F0040221
:1018A0001A67A368002B3FD0FEF7CCFE0646154B07
:1018B0001B6F13F0020F48D1FEF7C4FE801B41F2EC
:1018C00088339842F3D90320A1E00025D6E7104AD7
:1018D000136843F480731360FEF7B4FE06460C4BA6
:1018E0001B6813F4807FCED1FEF7ACFE801B02286C
:1018F000F5D903208BE0034A136F43F0010313670C
:10190000CFE700BF0038024000004742800E474248
:1019100000700040404B1A6F42F004021A671A6FC1
:1019200042F001021A67BCE7FEF78CFE06463A4B0E
:101930001B6F13F0020F08D0FEF784FE801B41F2EC
:1019400088339842F3D9032061E0E5B9A369002BFD
:101950005CD0314A926802F00C02082A59D0022B5E
:1019600017D02E4B00221A60FEF76CFE04462A4B5D
:101970001B6813F0007F45D0FEF764FE001B0228B1
:10198000F5D9032043E0244A136C23F080531364F9
:10199000DCE7224B00221A60FEF754FE05461E4B80
:1019A0001B6813F0007F06D0FEF74CFE401B022898
:1019B000F5D903202BE0E369226A1343626A43EA04
:1019C0008213A26A5208013A43EA0243E26A43EAF6
:1019D0000263226B43EA02730F4A53600F4B0122EA
:1019E0001A60FEF72FFE04460B4B1B6813F0007FB6
:1019F00006D1FEF727FE001B0228F5D9032006E0DA
:101A0000002004E0002002E0012000E0002002B0FD
:101A100070BD0120FBE700BF003802406000474274
:101A200010B504460368DA6812F4807F03D09B681F
:101A300013F4805F0FD12368DA6812F4007F03D0BB
:101A40009B6813F4005F0FD10C4B4FF400325A61C6
:101A50000123637710BD00F0B9FB2268D368DBB2C5
:101A600063F4C073D360E6E7204600F0C8FA22684A
:101A7000D368DBB263F42073D360E5E7003C014038
:101A800038B504460268D36823F0A003D360FEF79C
:101A9000D9FD05462368DB6813F0200F07D1FEF758
:101AA000D1FD401BB0F57A7FF4D9032000E000207F
:101AB00038BD38B50368DA6812F0400F01D0002055
:101AC00038BD04464FF0FF32DA60FEF7BBFD054635
:101AD0002368DB6813F0400F07D1FEF7B3FD401B0E
:101AE000B0F57A7FF4D90320EAE70020E8E738B5BB
:101AF00000285CD00446437F002B40D0022363774C
:101B00002368CA225A62236853225A622046FFF78A
:101B1000D0FF0546002836D12268936823F4E003FD
:101B200023F04003936021688A6863682069034357
:101B30006069034313438B602368E2681A6122687B
:101B40001369A16843EA014313612268D36823F053
:101B50008003D36023689B6813F0200F1BD022689A
:101B6000136C23F4802313642268136CA1690B4364
:101B700013642368FF225A620123637709E0037725
:101B800000F01AFDBAE72368FF225A620423637744
:101B90000125284638BD2046FFF772FF0028DED019
:101BA0002368FF225A62042363770125F1E70125A8
:101BB000EFE7002302E001330A38C0B20928FAD85F
:101BC0001B01DBB21843704770B5037F012B66D051
:101BD00001230377022343773AB94B7813F0100FB0
:101BE00003D003F0EF030A334B700E460446002A7D
:101BF00032D1C878FFF7DDFF05047078FFF7D9FF11
:101C000045EA0025B078FFF7D4FF2843357840EA4D
:101C100045352368CA225A62236853225A622046F5
:101C2000FFF747FF064610BB236825F07F4525F0E8
:101C3000C0055D602268D36823F08003D360236809
:101C40009B6813F0200F1CD02368FF225A620123E7
:101C500063770023237712E0CD784878000240EACA
:101C600005408D7828430D7840EA4535D1E7236853
:101C7000FF225A620423637700232377012630462C
:101C800070BD2046FFF7FCFE0028DDD02368FF2250
:101C90005A6204236377002323770126EFE70226A5
:101CA000EDE7F8B5037F012B78D00D4604460123FC
:101CB000037702234377002A46D103689B6813F019
:101CC000400F01D10023CB702878FFF772FF060484
:101CD0006878FFF76EFF46EA0026A878FFF769FFED
:101CE0003043EE7840EA06462368CA225A622368E7
:101CF00053225A622046FFF7DCFE0746002835D102
:101D0000236806F07F3626F0FE461E602268936840
:101D100023F48023936021688B68EA682869024372
:101D200013438B602268D36823F08003D360236859
:101D30009B6813F0200F23D02368FF225A620123EF
:101D400063770023237719E003689B6813F0400F43
:101D500001D10023CB702B786878000240EA034061
:101D6000AB781843EE7840EA0646BDE72368FF22C9
:101D70005A62042363770023237701273846F8BD8E
:101D80002046FFF77DFE0028D6D02368FF225A6246
:101D900004236377002323770127EFE70227EDE78A
:101DA000F0B583B0634B1B68634CA4FB0343DB0AB1
:101DB0004FF47A7606FB03F30193037F012B00F0C7
:101DC000B6800D4604460123037702234377002A99
:101DD00061D103689B6813F0400F01D10023CB70E1
:101DE000EF692878FFF7E5FE06046878FFF7E1FE63
:101DF00046EA0026A878FFF7DCFE0643E87846EAC4
:101E0000004695F82000FFF7D4FE46EA006038430C
:101E10006B6918436968AB6919432368CA225A621F
:101E2000236853225A626B6AB3F5807F4DD02268D3
:101E3000936823F4007393602268D368DBB263F481
:101E40002073D360019B5A1E0192002B67D0236838
:101E5000DA6812F0020FF5D01862236899642268DC
:101E6000936843F4007393602268936843F40053CB
:101E70009360324B1A6842F400321A609A6842F456
:101E800000329A602368FF225A62012363770020A0
:101E9000207703B0F0BD03689B6813F0400F01D1B9
:101EA0000023CB70EA6929786B781B0243EA01436F
:101EB000A9780B43E97843EA014395F8201043EAF7
:101EC0000163134368691843A4E72268936823F405
:101ED000807393602268D368DBB263F4C073D3600D
:101EE000019B5A1E019293B12368DA6812F0010F28
:101EF000F6D0D861236859642268936843F48073EC
:101F000093602268936843F480539360B1E7236839
:101F1000FF225A620320607700232377B9E7236802
:101F2000FF225A620320607700232377B1E7022063
:101F3000AFE700BF08000020D34D6210003C014015
:101F4000030903EB83035A0000F00F001044C0B2F2
:101F5000704770B503689B6A4B6003681B69C3F3E5
:101F60000E038B6003681B6803F07F3323F0FE438E
:101F70001D0C05F03F000870C3F306264E7003F0F9
:101F80007F048C7005F04005CD705AB90D46FFF7FF
:101F9000D7FF28703046FFF7D3FF68702046FFF761
:101FA000CFFFA870002070BD70B503685B6823F098
:101FB0007F4323F0C003180CC870C3F304264E708F
:101FC00003F03F058D70C3F342330B705AB90C46D2
:101FD000FFF7B6FFE0703046FFF7B2FF60702846AB
:101FE000FFF7AEFFA070002070BD0368503343F8C8
:101FF000212070470368503353F821007047704721
:1020000000B585B000F0F0030001C0B243F00C024F
:102010008DF80C2043F008038DF80D3040F00C03D0
:102020008DF80E3040F008008DF80F006423009307
:10203000042303AA4E210348FEF74CFE05B05DF8C9
:1020400004FB00BFA000002000B585B000F0F00345
:102050000001C0B243F00D028DF80C2043F00903DB
:102060008DF80D3040F00D038DF80E3040F0090072
:102070008DF80F0064230093042303AA4E21034824
:10208000FEF728FE05B05DF804FB00BFA0000020AD
:1020900008B50220FFF7B4FF2820FFF7B1FF0C209E
:1020A000FFF7AEFF8020FFF7ABFF08BD10B5044679
:1020B00002E00134FFF7C8FF20780028F9D110BDF5
:1020C00030B58BB0002401941C4B1A6B42F0040213
:1020D0001A631A6B02F004020192019A02941A6BBD
:1020E00042F080021A631A6B02F080020292029A96
:1020F00003941A6B42F001021A631A6B02F0010298
:102100000392039A04941A6B42F002021A631B6B47
:1021100003F002030493049B094D22462021284624
:10212000FEF706FC202305930123069307940894E9
:1021300005A92846FEF71EFB0BB030BD0038024053
:102140000000024010B588B0124C002202A92046BF
:10215000FFF7FFFE002207A92046FFF725FF9DF8A5
:1021600008209DF809309DF80A1000910A490B4893
:1021700000F0C2FA9DF81E209DF81D309DF81F103A
:1021800001F5FA6100910649064800F0B5FA08B079
:1021900010BD00BFF40000204C2F000814010020E7
:1021A0005C2F00082001002008B58020FFF728FFE1
:1021B0000448FFF77BFFC020FFF722FF0248FFF72C
:1021C00075FF08BD1401002020010020014B0122F1
:1021D0001A7070478C00002010B5012220210F4892
:1021E000FEF7A6FB8020FFF70BFF0D48FFF75EFF11
:1021F000C020FFF705FF0B48FFF758FF40F6B83047
:10220000FEF726FA8020FFF7FBFE002403E02020E3
:10221000FFF71AFF01343B2CF9DD10BD000002402E
:102220006C2F00087C2F0008FEE7000000B587B087
:1022300010238DF8043020238DF8053030238DF8DD
:102240000630002304930593012201A91348FFF7E8
:1022500028FDD0B902238DF8003008238DF8013015
:1022600012238DF8023000238DF8033001226946D5
:102270000A48FFF7A9FC60B943F2F222012107489E
:10228000FFF7B3FE07B05DF804FB57210448FFF7E2
:10229000CBFF64210248FFF7C7FF00BFF400002016
:1022A0008C2F000800B58BB010238DF8003021234F
:1022B0008DF8013000238DF80230019303930493CD
:1022C00005930693079312238DF820304FF4807303
:1022D0000993012269460548FFF762FD10B90BB06A
:1022E0005DF804FB80210248FFF79EFFF400002008
:1022F0008C2F000808B50C480C4B03600C4B436056
:1023000000238360C3604FF48042026143618361B4
:10231000C3610362FEF750FC00B908BD4FF4AA7117
:102320000448FFF781FF00BFA000002000540040D8
:10233000A08601008C2F000808B50A480A4B0360EC
:10234000002343607F228260FF22C26003614361F9
:102350008361FFF7CCFB00B908BD40F2731103485D
:10236000FFF762FFF4000020002800408C2F0008D7
:1023700000B5ADB000210191384B1A6C42F080528B
:102380001A641B6C03F080530193019B0291344B40
:102390001A6842F440421A601B6803F440430293F7
:1023A000029B05231F934FF4803320930123219335
:1023B000022325934FF48002269204222792B4220E
:1023C000289229932A932B931FA8FFF747F980BBE4
:1023D000FEF742FD90BB0F231A9302231B930023A9
:1023E0001C934FF4A0531D934FF480531E9305216B
:1023F0001AA8FEF771FD30BB202303934FF48073BE
:10240000139303A8FEF72AFE10BBFEF711FE154B2F
:10241000A3FB00308009FEF781F90420FEF794F950
:10242000002211464FF0FF30FEF738F92DB05DF86D
:1024300004FB4FF48D710C48FFF7F6FE40F22111BA
:102440000948FFF7F1FE40F22F110748FFF7ECFEB5
:102450004FF49B710448FFF7E7FE00BF00380240CD
:1024600000700040D34D62108C2F000808B5FEF7B5
:10247000C3F8FFF77DFFFFF723FEFFF73BFFFFF7F2
:102480005BFFFFF705FE01210E48FFF7B3FD43F2A6
:10249000F223984201D0FFF7C9FEFFF703FFFFF7D1
:1024A00051FEFFF781FE4FF4FA70FEF7D1F8064BAC
:1024B0001B78002BF3D0FFF78FFE034B00221A701E
:1024C000EDE700BFF40000208C00002010B582B0C2
:1024D00000240094214B5A6C42F480425A645A6C96
:1024E00002F480420092009A01941A6C42F08052E9
:1024F0001A641B6C03F080530193019B0320FEF7C9
:10250000BBF8224621466FF00B00FEF7C7F82246C3
:1025100021466FF00A00FEF7C1F8224621466FF00F
:102520000900FEF7BBF8224621466FF00400FEF7D3
:10253000B5F8224621466FF00300FEF7AFF82246B9
:1025400021466FF00100FEF7A9F8224621464FF020
:10255000FF30FEF7A3F802B010BD00BF0038024004
:102560000268124B9A4200D0704700B587B04FF412
:1025700040730193122302930123039303230493D3
:10258000042305930DEB03010948FEF7F3F800233C
:102590000093084B1A6C42F400121A641B6C03F48B
:1025A00000130093009B07B05DF804FB005400404B
:1025B000000402400038024008B50268074B9A4206
:1025C00000D008BD064B01221A60002211462920C6
:1025D000FEF764F82920FEF795F8F2E7002800409E
:1025E0003C0E47427047FEE7FEE7FEE7FEE7704716
:1025F0007047704708B5FEF719F8FEF7B6F808BD42
:1026000008B50248FFF70CFA08BD00BFF40000202F
:102610000F49D1F8883043F47003C1F888300D4B6E
:102620001A6842F001021A60002098601A6822F0CD
:10263000847222F480321A60074A5A601A6822F4BF
:1026400080221A60D8604FF000638B60704700BF33
:1026500000ED00E00038024010300024DFF834D0F4
:10266000002103E00C4B5B58435004310B480C4BEA
:1026700042189A42F6D30B4A02E0002342F8043B88
:10268000094B9A42F9D3FFF7C3FF00F011F8FFF7A7
:10269000EDFE704700000220E02F0008000000203F
:1026A000700000207000002030010020FEE70000D4
:1026B00070B50D4E0D4CA41BA4100025A54209D1E8
:1026C0000B4E0C4C00F02AFCA41BA4100025A542C4
:1026D00005D170BD56F8253098470135EEE756F81C
:1026E000253098470135F2E7D82F0008D82F000889
:1026F000D82F0008DC2F00080EB400B59CB01DAB2D
:10270000029006906FF00041094807910491094931
:1027100053F8042B05910068019302A900F066F8B4
:10272000029B00221A701CB05DF804EB03B07047E6
:102730000C0000200802FFFF2DE9F0478E689E4242
:1027400082460C469046994637D88A8912F4906F93
:1027500031D0256809696F1A6569022305EB4505C3
:1027600095FBF3F509F101033B449D4238BF1D463B
:10277000530530D5294600F029FB064650B90C23F5
:10278000CAF80030A38943F04003A3814FF0FF3023
:10279000BDE8F0873A46216900F0A6FAA38923F440
:1027A000906343F08003A381266165613E44ED1B85
:1027B0002660A5604E464E4500D94E4632464146FB
:1027C000206800F09CFAA3689B1BA36023681E444A
:1027D00026600020DCE72A4600F052FB064600286F
:1027E000E2D12169504600F0A3FAC8E72DE9F04F85
:1027F0009DB0804603938B891D060C4616460FD567
:102800000B696BB9402100F0E1FA2060206128B922
:102810000C23C8F800304FF0FF30C7E0402363615D
:102820000023099320238DF8293030238DF82A3096
:102830004FF0010B37463D4615F8013B0BB1252BF8
:102840003ED1B7EB060A0BD05346324621464046EE
:10285000FFF772FF013000F0A480099B53440993F5
:102860003B78002B00F09D8000234FF0FF32CDE934
:102870000523049307938DF853301A932F460522AE
:1028800017F8011B4F48FDF743FE049BD0B9D9064A
:1028900044BF20228DF853201A0744BF2B228DF805
:1028A00053202A782A2A15D0079A2F4600200A2575
:1028B000394611F8013B303B092B4DD9B8B10FE037
:1028C0002F46B8E73F4A801A0BFA00F018430490ED
:1028D0003D46D3E7039A111D12680391002A01DBDC
:1028E000079204E0524243F00203079204933B78BC
:1028F0002E2B0CD17B782A2B33D1039B1A1D1B68FE
:102900000392002BB8BF4FF0FF33023705932E4DD3
:10291000397803222846FDF7FBFD38B14023401BE0
:1029200003FA00F0049B03430137049339782748E6
:102930008DF8281006227E1CFDF7EAFD002838D00D
:10294000234B13BB039B073323F007030833039385
:10295000099B4B4409936DE705FB023201200F46AA
:10296000A6E700230137059319460A25384610F8D3
:10297000012B303A092A03D9002BC8D00591C6E7AC
:1029800005FB012101230746F0E703AB0093224634
:10299000104B04A94046AFF30080B0F1FF3F8146E1
:1029A000D6D1A3895B063FF536AF09981DB0BDE8C7
:1029B000F08F03AB00932246064B04A9404600F07B
:1029C00081F8EAE79C2F0008A22F0008A62F000834
:1029D00000000000392700082DE9F04791461F4606
:1029E0008A680B69DDF820809342B8BF1346C9F8A6
:1029F000003091F8432006460C4612B10133C9F865
:102A000000302368990642BFD9F800300233C9F874
:102A10000030256815F0060507D104F1190AE368AE
:102A2000D9F800209B1AAB4228DC94F84330226886
:102A3000003318BF012392062DD404F14302394616
:102A40003046C047013020D02368E568D9F800201F
:102A500003F00603042B08BFAD1AA36822690CBF5C
:102A600025EAE57500259342C4BF9B1AED184FF087
:102A700000091A344D451AD1002008E001235246BE
:102A800039463046C047013003D14FF0FF30BDE832
:102A9000F0870135C3E7E1185A1C302081F8430064
:102AA000224494F8451082F843100233C5E701230D
:102AB000224639463046C0470130E6D009F10109C7
:102AC000D8E700002DE9F04301F1430C0C46097EE4
:102AD00085B06E291746064698460C9A00F0B380DA
:102AE00022D8632936D00AD8002900F0B9805829A5
:102AF00000F0838004F1420584F8421032E064293A
:102B000001D06929F6D120681368050603F1040194
:102B10002AD51B681160002B03DA2D225B4284F852
:102B200043206F480A2239E0732900F09D8008D8BD
:102B30006F2920D07029DDD1236843F02003236062
:102B400003E0752917D07829D4D1782384F845304B
:102B5000644855E01368191D1B68116004F14205B3
:102B600084F8423001238CE01B68116010F0400FA4
:102B700018BF1BB2CFE713682568181D1060280620
:102B800001D51B6802E06806FBD51B8854486F29F5
:102B900014BF0A220822002184F843106568A5604A
:102BA000002DC0F29580216821F004012160002BE6
:102BB0003DD1002D40F08E806546082A0BD1236858
:102BC000DB0708D5236962689A42DEBF302305F827
:102BD000013C05F1FF35ACEB05032361CDF8008026
:102BE0003B4603AA21463046FFF7F6FE01304DD1A1
:102BF0004FF0FF3005B0BDE8F083394884F8451048
:102C0000136821681D1D1B6815600A060BD5CA07CD
:102C100044BF41F0200121601BB9226822F020024C
:102C200022601022B7E74D0648BF9BB2EFE765462A
:102C3000B3FBF2F102FB1133C35C05F8013D0B4617
:102C40000029F5D1B9E7136825686169181D10607E
:102C500028061B6801D5196002E06A06FBD51980B9
:102C6000002323616546B9E71368191D11601D68CB
:102C7000626800212846FDF74BFC08B1401B6060EC
:102C800063682361002384F84330A7E723692A4659
:102C900039463046C0470130AAD023689B0713D479
:102CA000E068039B9842B8BF1846A3E701234A4651
:102CB00039463046C04701309AD00135E368039A5F
:102CC0009B1AAB42F2DCEBE7002504F11909F5E7AA
:102CD000002BACD1037884F8423004F142056CE754
:102CE000AD2F0008BE2F000810B5431E0A449142C4
:102CF00000D110BD11F8014B03F8014FF7E78842EE
:102D000010B501EB020307D8421E99420AD011F810
:102D1000014B02F8014FF8E78342F5D98118D21A26
:102D2000D34200D110BD13F8014D01F8014DF7E772
:102D300038B50546002945D051F8043C0C1F002B3E
:102D4000B8BFE41800F0D2F81F4A1368104633B930
:102D5000636014602846BDE8384000F0C8B8A3425C
:102D60000CD921686218934204BF1A685B686360DB
:102D700004BF521822600460ECE713465A680AB197
:102D8000A242FAD919685818A0420BD12068014410
:102D9000581882421960DDD1106852685A600144A7
:102DA0001960D7E702D90C232B60D3E720682118DC
:102DB0008A4204BF11685268626004BF091821602A
:102DC0005C60C7E738BD00BF9000002070B5CD1C27
:102DD00025F0030508350C2D38BF0C25002D0646BF
:102DE00001DBA94203D90C233360002070BD00F041
:102DF0007DF8214A1468214691B9204C23681BB9FB
:102E0000304600F063F820602946304600F05EF856
:102E1000431C24D10C233360304600F068F8E4E70B
:102E20000B685B1B18D40B2B0FD90B60CD50CC1843
:102E3000304600F05CF804F10B00231D20F0070081
:102E4000C31AD3D05A42E250D0E78C424B6816BF27
:102E5000636013600C46EBE70C464968CCE7C41C82
:102E600024F00304A04205D0211A304600F02EF8C9
:102E70000130CFD02560DBE79000002094000020D7
:102E8000F8B5074614460E4621B91146BDE8F8408C
:102E9000FFF79CBF22B9FFF74BFF25462846F8BD38
:102EA00000F026F8A0420FD221463846FFF78EFFE9
:102EB00005460028F2D031462246FFF715FF31467D
:102EC0003846FFF735FFE9E73546E7E738B5064C02
:102ED000002305460846236000F012F8431C02D187
:102EE000236803B12B6038BD2C0100207047704768
:102EF00051F8043C181F002BBCBF0B58C01870477A
:102F0000044A05491368002B08BF0B46184410609B
:102F1000184670479800002030010020F8B500BF27
:102F2000F8BC08BC9E467047F8B500BFF8BC08BCAA
:042F30009E46704702
:102F34000000000000000000010203040607080965
:102F44000000000001020304253032643A253032C7
:102F5400643A253032640000253032642D25303245
:102F6400642D2532640000005355425343524942B4
:102F74004520544F000000007468697320434841A1
:102F84004E4E454C000000002E2E2F5372632F6DC1
:102F940061696E2E63000000232D302B2000686CC5
:102FA4004C00656667454647003031323334353668
:102FB40037383941424344454600303132333435A1
:0C2FC400363738396162636465660000CE
:082FD00070D2FF7F0100000038
:042FD800F5010008F7
:042FDC00D101000817
:102FE00001000000100000000024F4001000002088
:102FF00000000000000000000000000000000000D1
:1030000000000000000000000000000000000000C0
:1030100000000000000000000000000000000000B0
:1030200000000000000000000000000000000000A0
:103030000000000000000000000000000000000090
:103040000000000000000000000000000000000080
:040000050800265D6C
:00000001FF
